{
  "contractName": "SupplyChain",
  "abi": [
    {
      "anonymous": false,
      "inputs": [
        {
          "indexed": false,
          "internalType": "uint256",
          "name": "id",
          "type": "uint256"
        },
        {
          "indexed": false,
          "internalType": "string",
          "name": "name",
          "type": "string"
        },
        {
          "indexed": false,
          "internalType": "enum SupplyChain.State",
          "name": "state",
          "type": "uint8"
        }
      ],
      "name": "ProductUpdated",
      "type": "event"
    },
    {
      "constant": true,
      "inputs": [],
      "name": "productCount",
      "outputs": [
        {
          "internalType": "uint256",
          "name": "",
          "type": "uint256"
        }
      ],
      "payable": false,
      "stateMutability": "view",
      "type": "function"
    },
    {
      "constant": true,
      "inputs": [
        {
          "internalType": "uint256",
          "name": "",
          "type": "uint256"
        }
      ],
      "name": "products",
      "outputs": [
        {
          "internalType": "uint256",
          "name": "id",
          "type": "uint256"
        },
        {
          "internalType": "string",
          "name": "name",
          "type": "string"
        },
        {
          "internalType": "enum SupplyChain.State",
          "name": "state",
          "type": "uint8"
        }
      ],
      "payable": false,
      "stateMutability": "view",
      "type": "function"
    },
    {
      "constant": false,
      "inputs": [
        {
          "internalType": "string",
          "name": "_name",
          "type": "string"
        }
      ],
      "name": "createProduct",
      "outputs": [],
      "payable": false,
      "stateMutability": "nonpayable",
      "type": "function"
    },
    {
      "constant": false,
      "inputs": [
        {
          "internalType": "uint256",
          "name": "_productId",
          "type": "uint256"
        },
        {
          "internalType": "enum SupplyChain.State",
          "name": "_state",
          "type": "uint8"
        }
      ],
      "name": "updateState",
      "outputs": [],
      "payable": false,
      "stateMutability": "nonpayable",
      "type": "function"
    },
    {
      "constant": true,
      "inputs": [
        {
          "internalType": "uint256",
          "name": "_productId",
          "type": "uint256"
        }
      ],
      "name": "getProduct",
      "outputs": [
        {
          "internalType": "uint256",
          "name": "",
          "type": "uint256"
        },
        {
          "internalType": "string",
          "name": "",
          "type": "string"
        },
        {
          "internalType": "enum SupplyChain.State",
          "name": "",
          "type": "uint8"
        }
      ],
      "payable": false,
      "stateMutability": "view",
      "type": "function"
    }
  ],
  "bytecode": "0x608060405234801561001057600080fd5b50610888806100206000396000f3fe608060405234801561001057600080fd5b50600436106100575760003560e01c806302ec06be1461005c5780637acc0b2014610117578063b9db15b4146101da578063e0f6ef871461029d578063ffbafdfe146102bb575b600080fd5b6101156004803603602081101561007257600080fd5b810190808035906020019064010000000081111561008f57600080fd5b8201836020820111156100a157600080fd5b803590602001918460018302840111640100000000831117156100c357600080fd5b91908080601f016020809104026020016040519081016040528093929190818152602001838380828437600081840152601f19601f8201169050808301925050505050505091929192905050506102f6565b005b6101436004803603602081101561012d57600080fd5b8101908080359060200190929190505050610458565b604051808481526020018060200183600281111561015d57fe5b60ff168152602001828103825284818151815260200191508051906020019080838360005b8381101561019d578082015181840152602081019050610182565b50505050905090810190601f1680156101ca5780820380516001836020036101000a031916815260200191505b5094505050505060405180910390f35b610206600480360360208110156101f057600080fd5b8101908080359060200190929190505050610527565b604051808481526020018060200183600281111561022057fe5b60ff168152602001828103825284818151815260200191508051906020019080838360005b83811015610260578082015181840152602081019050610245565b50505050905090810190601f16801561028d5780820380516001836020036101000a031916815260200191505b5094505050505060405180910390f35b6102a561064d565b6040518082815260200191505060405180910390f35b6102f4600480360360408110156102d157600080fd5b8101908080359060200190929190803560ff169060200190929190505050610653565b005b600160008154809291906001019190505550604051806060016040528060015481526020018281526020016000600281111561032e57fe5b815250600080600154815260200190815260200160002060008201518160000155602082015181600101908051906020019061036b929190610782565b5060408201518160020160006101000a81548160ff0219169083600281111561039057fe5b02179055509050507fd27589c44ccfc4aa0857886d4087cefe13a715868b8ed2227d5bd03bb42c188060015482600060405180848152602001806020018360028111156103d957fe5b60ff168152602001828103825284818151815260200191508051906020019080838360005b838110156104195780820151818401526020810190506103fe565b50505050905090810190601f1680156104465780820380516001836020036101000a031916815260200191505b5094505050505060405180910390a150565b6000602052806000526040600020600091509050806000015490806001018054600181600116156101000203166002900480601f01602080910402602001604051908101604052809291908181526020018280546001816001161561010002031660029004801561050a5780601f106104df5761010080835404028352916020019161050a565b820191906000526020600020905b8154815290600101906020018083116104ed57829003601f168201915b5050505050908060020160009054906101000a900460ff16905083565b600060606000610535610802565b60008086815260200190815260200160002060405180606001604052908160008201548152602001600182018054600181600116156101000203166002900480601f0160208091040260200160405190810160405280929190818152602001828054600181600116156101000203166002900480156105f55780601f106105ca576101008083540402835291602001916105f5565b820191906000526020600020905b8154815290600101906020018083116105d857829003601f168201915b505050505081526020016002820160009054906101000a900460ff16600281111561061c57fe5b600281111561062757fe5b815250509050806000015181602001518260400151819150935093509350509193909250565b60015481565b60008060008481526020019081526020016000209050818160020160006101000a81548160ff0219169083600281111561068957fe5b02179055507fd27589c44ccfc4aa0857886d4087cefe13a715868b8ed2227d5bd03bb42c18808160000154826001018360020160009054906101000a900460ff1660405180848152602001806020018360028111156106e457fe5b60ff16815260200182810382528481815460018160011615610100020316600290048152602001915080546001816001161561010002031660029004801561076d5780601f106107425761010080835404028352916020019161076d565b820191906000526020600020905b81548152906001019060200180831161075057829003601f168201915b505094505050505060405180910390a1505050565b828054600181600116156101000203166002900490600052602060002090601f016020900481019282601f106107c357805160ff19168380011785556107f1565b828001600101855582156107f1579182015b828111156107f05782518255916020019190600101906107d5565b5b5090506107fe919061082e565b5090565b604051806060016040528060008152602001606081526020016000600281111561082857fe5b81525090565b61085091905b8082111561084c576000816000905550600101610834565b5090565b9056fea265627a7a72315820796da71cd682b02f245e50f6c5eb6bd0b2af358f6985adfc8fb652c5bcf1e18664736f6c63430005100032",
  "source": "// SPDX-License-Identifier: MIT\r\npragma solidity 0.5.16; //version de truffle par défaut, idealement il faudrait au moins une 0.8.x\r\n\r\ncontract SupplyChain {\r\n    enum State { Manufactured, Shipped, Delivered }\r\n\r\n    struct Product {\r\n        uint id;\r\n        string name;\r\n        State state;\r\n    }\r\n\r\n    mapping(uint => Product) public products;\r\n    uint public productCount;\r\n\r\n    event ProductUpdated(uint id, string name, State state);\r\n\r\n    function createProduct(string memory _name) public {\r\n        productCount++;\r\n        products[productCount] = Product(productCount, _name, State.Manufactured);\r\n        emit ProductUpdated(productCount, _name, State.Manufactured);\r\n    }\r\n\r\n    function updateState(uint _productId, State _state) public {\r\n        Product storage product = products[_productId];\r\n        product.state = _state;\r\n        emit ProductUpdated(product.id, product.name, product.state);\r\n    }\r\n\r\n    function getProduct(uint _productId) public view returns (uint, string memory, State) {\r\n        Product memory product = products[_productId];\r\n        return (product.id, product.name, product.state);\r\n    }\r\n}\r\n",
  "sourcePath": "C:\\Users\\newtw\\OneDrive\\Bureau\\MASTERSSI\\GS16\\supplychain_blockchain\\supplychain_blockchain\\contracts\\SupplyChain.sol",
  "compiler": {
    "name": "solc",
    "version": "0.5.16+commit.9c3226ce.Emscripten.clang"
  },
  "schemaVersion": "3.4.16",
  "updatedAt": "2024-12-06T15:30:57.043Z",
  "networkType": "ethereum",
  "devdoc": {
    "methods": {}
  },
  "userdoc": {
    "methods": {}
  }
}